:1000000012C019C018C017C016C015C014C013C044
:1000100012C011C010C00FC00EC00DC00CC00BC06C
:100020000AC009C008C011241FBECFE5D4E0DEBF5E
:10003000CDBF02D034C0E4CF8FEF87BB84BB80E557
:100040008DB98EE085BB81E48FB9779BFECF88E8C0
:1000500093E129E130E0F9013197F1F70197D9F700
:100060008DE085BB82E48FB9779BFECF88E893E172
:1000700029E130E0F9013197F1F70197D9F78BE0E9
:1000800085BB83E48FB9779BFECF88E893E129E1B4
:1000900030E0F9013197F1F70197D9F7FFCFF894E4
:0200A000FFCF90
:00000001FF
