:10006F008F0B8E0A8D098C08780874FF120051ECE3
:06007F004D4E4F70F3220C
:10000300E4FFFEF5B020800A0FBF00010E2080F54B
:1000130080FBEF64014E700975A00175B001759006
:100023003FEF64024E7007F5A0F5B0759006EF64DC
:10003300034E700975A00275B00275905BEF6404FE
:0C0043004E70C2F5A0F5B075904F80B96A
:0300000002008576
:0C008500787FE4F6D8FD75810B020003C3
:10004F007401FF3395E0FEFDFC080808E6CF2FF69C
:10005F0018E6CE3EF618E6CD3DF618E6CC3CF62275
:00000001FF
