:1000000012C021C020C01FC01EC01DC01CC01BC00C
:100010001AC019C018C017C016C015C014C013C02C
:1000200012C011C010C011241FBECFE5D4E0DEBF46
:10003000CDBF10E0A0E6B0E001C01D92A236B1072E
:10004000E1F75BD072C0DCCF382F32953F70232FA1
:10005000206422BB48E853E1FA013197F1F732BB43
:1000600090E08F709070282F206422BBFA013197A6
:10007000F1F782BB0895282F22952F70922F90655B
:1000800092BB48E853E1FA013197F1F7206122BBB6
:100090008F70982F906592BBFA013197F1F78061CC
:1000A00082BB08950F931F9382E0CEDF04EC19E02A
:1000B000C8010197F1F788E2C7DFC8010197F1F79E
:1000C00081E0C2DFC8010197F1F780E8BDDFC80118
:1000D0000197F1F78EE0B8DFC8010197F1F71F91A2
:1000E0000F910895FC0105C083B906B607FEFDCF48
:1000F000319680818823C1F708951F938FEF81BBCC
:1001000080E582B9CFDF14EC16BF06B607FEFDCF3F
:1001100086B7806886BF06B607FEFDCF83B18093A1
:0E012000600010926100A7DFEFCFF894FFCFD0
:00000001FF
