:1003210053544F500020205245414459002020474A
:100331004F00003F0006005B004F0066006D007D2E
:060341000007007F0067C9
:1002A700C282D283C2847C007D0AAF03AE021201F0
:1002B70079ED25E02408F808E6F5907F107E2712EF
:1002C70002E6D284C2837C007D0AAF03AE0212012C
:0F02D70079EF25E02408F808E6F5907F107E27E0
:0B02E600EF1FAC0670011E4C70F622EA
:070361007F011203687F8099
:100368008FB0C2A0C2A1D2A27F327E001202E6C222
:02037800A222BF
:10037A008FB0D2A0C2A1D2A27F327E001202E6C200
:02038A00A222AD
:1002F1007F011203687FC87E001202E67F38120375
:10030100687FC87E001202E67F0E1203687FC87EF6
:10031100001202E67F801203687FC87E000202E6B7
:100347001200F9FF601312037A740129F9E43AFAEB
:0A0357007F287E231202E680E722D1
:04023200AB07AA0666
:100236009000018A1C8B1DC3E51D940AE51C9400E1
:10024600401C7C007D0AAF82AE831201128E838F22
:1002560082AE1CAF1D1201248E1C8F1D80D9C3E5F2
:10026600829401E58394004037AF03AE02AD82ACC1
:10027600831201248E1E8F1FAF03AE02AD82AC83A4
:10028600120124AA04AB057C007D0AAF82AE83125C
:1002960001248E838F82E51F2430FF12037A80BEED
:0102A6002235
:1001AF0078087C007D007BFF7A0379337E007F1413
:1001BF001200D31202F1E4F590F5A0F5B07BFF7AAF
:1001CF000379211203477B637A00D280C281120226
:1001DF00A7EB1B70011AEB641D4A70EE1203617BD3
:1001EF00FF7A0379261203477A007B1DC280D281E2
:1001FF001202A7EB1B70011AEB64094A70EE12038F
:10020F00617BFF7A03792E1203477A007B63C280EA
:10021F00C281D2821202A9EB1B70011ABAFFEFBB87
:02022F00FFECE2
:0102310022AA
:0300000002038C6C
:0C038C00787FE4F6D8FD75811F0201AFF8
:10000300E709F608DFFA8046E709F208DFFA803EDF
:1000130088828C83E709F0A3DFFA8032E309F608CC
:10002300DFFA8078E309F208DFFA807088828C8334
:10003300E309F0A3DFFA806489828A83E0A3F608E8
:10004300DFFA805889828A83E0A3F208DFFA804CC2
:1000530080D280FA80C680D4806980F28033801099
:1000630080A680EA809A80A880DA80E280CA803302
:1000730089828A83ECFAE493A3C8C582C8CCC5837A
:10008300CCF0A3C8C582C8CCC583CCDFE9DEE7804A
:100093000D89828A83E493A3F608DFF9ECFAA9F0C9
:1000A300EDFB2289828A83ECFAE0A3C8C582C8CC1F
:1000B300C583CCF0A3C8C582C8CCC583CCDFEADE38
:1000C300E880DB89828A83E493A3F208DFF980CC9A
:1000D30088F0EF60010E4E60C388F0ED2402B40493
:1000E3000050B9F582EB2402B4040050AF2323453A
:0600F3008223900053730C
:1000F900BB010689828A83E0225002E722BBFE0205
:09010900E32289828A83E4932237
:10011200EF8DF0A4A8F0CF8CF0A428CE8DF0A42E01
:02012200FE22BB
:10012400BC000BBE0029EF8DF084FFADF022E4CCBF
:10013400F875F008EF2FFFEE33FEEC33FCEE9DEC88
:10014400984005FCEE9DFE0FD5F0E9E4CEFD22EDCE
:10015400F8F5F0EE8420D21CFEADF075F008EF2F18
:10016400FFED33FD4007985006D5F0F222C398FD09
:050174000FD5F0EA22A6
:10017900C2D5EC30E709B2D5E4C39DFDE49CFCEEA1
:1001890030E715B2D5E4C39FFFE49EFE120124C3F4
:10019900E49DFDE49CFC800312012430D507C3E4EF
:0601A9009FFFE49EFE2210
:00000001FF
