:0D022100202048203A204D203A2053200094
:0701EB001201FD7FC87E0038
:0B01F200EF1FAC0670011E4C70F622DF
:1001FD008FB0C2A0C2A1D2A27F327E001201F2C284
:02020D00A2222B
:10020F008FB0D2A0C2A1D2A27F327E001201F2C261
:02021F00A22219
:1001B6007F011201EB7F381201EB7F0C1201EB7FFE
:0B01C600801201FD7FC87E000201F2E4
:1001D1001200BAFF601312020F740129F9E43AFA0E
:0A01E1007F287E231201F280E7223E
:04013A00AB07AA065F
:10013E009000018A0E8B0FC3E50F940AE50E940012
:10014E00401C7C007D0AAF82AE831200D38E838F5B
:10015E0082AE0EAF0F1200E58E0E8F0F80D9C3E563
:10016E00829401E5839400403EAF03AE02AD82ACB3
:10017E00831200E58E108F11AF03AE02AD82AC83F9
:10018E001200E5AA04AB057C007D0AAF82AE831295
:10019E0000E58E838F827F407E9C1201F2E5112452
:0701AE0030FF12020F80B7C1
:0101B5002227
:100003001201B67F801201FD7BFF7A027921120172
:10001300D1E4F508F5097FC21201FDC3E509940A8D
:10002300E5086480948050057F3012020FAF09AE5B
:100033000812013AE4F50AF50B7FC61201FDC3E588
:100043000B940AE50A6480948050057F3012020FF6
:10005300AF0BAE0A12013AE4F50CF50D7FC912019C
:10006300FDC3E50D940AE50C6480948050057F3050
:1000730012020FAF0DAE0C12013A050DE50D700221
:10008300050CC3943BE50C6480948040CF050BE5DD
:100093000B7002050AC3943BE50A6480948040997F
:1000A3000509E50970020508C3940CE5086480940A
:0600B30080500302001959
:0100B9002224
:0300000002022ECB
:0C022E00787FE4F6D8FD75811102000312
:1000BA00BB010689828A83E0225002E722BBFE0244
:0900CA00E32289828A83E4932277
:1000D300EF8DF0A4A8F0CF8CF0A428CE8DF0A42E41
:0200E300FE22FB
:1000E500BC000BBE0029EF8DF084FFADF022E4CCFF
:1000F500F875F008EF2FFFEE33FEEC33FCEE9DECC8
:10010500984005FCEE9DFE0FD5F0E9E4CEFD22ED0D
:10011500F8F5F0EE8420D21CFEADF075F008EF2F57
:10012500FFED33FD4007985006D5F0F222C398FD48
:050135000FD5F0EA22E5
:00000001FF
