:100000001EC038C037C036C035C034C033C032C05F
:1000100031C030C02FC02EC02DC02CC02BC02AC074
:1000200029C028C027C086C288C28AC28CC28EC29C
:1000300090C292C294C296C298C29AC29CC2112423
:100040001FBECFE5D4E0DEBFCDBF11E0A0E6B0E03B
:10005000E6E2F6E002C005900D92AC36B107D9F7A2
:1000600011E0ACE6B1E001C01D92AD36B107E1F799
:10007000C9D2D7C2C5CF382F32953F70232F206405
:1000800022BB48E853E1FA013197F1F732BB90E027
:100090008F709070282F206422BBFA013197F1F7FE
:1000A00082BB0895282F22952F70922F906592BBC6
:1000B00048E853E1FA013197F1F7206122BB8F70D4
:1000C000982F906592BBFA013197F1F7806182BB5E
:1000D00008950F931F9382E0CEDF04EC19E0C8016E
:1000E0000197F1F788E2C7DFC8010197F1F781E0D6
:1000F000C2DFC8010197F1F780E8BDDFC8010197B1
:10010000F1F78CE0B8DFC8010197F1F71F910F916B
:100110000895CF93DF93EC0102C0C4DF219688815C
:100120008823D9F7DF91CF91089584EA86BF06B678
:1001300007FEFDCF089584E986BF06B604FCFDCF17
:10014000089583B984E886BF06B607FEFDCF0895FB
:1001500084E886BF06B607FEFDCF83B10895982FC9
:1001600084EA86BF06B607FEFDCF80ED83B984E83A
:1001700086BF06B607FEFDCF82E083B984E886BF5E
:1001800006B607FEFDCF93B984E886BF06B607FE24
:10019000FDCF84E986BF06B604FCFDCF089584EA4E
:1001A00086BF06B607FEFDCF08950F931F9384EA1E
:1001B00086BF06B607FEFDCF80ED83B984E886BF13
:1001C00006B607FEFDCF82E083B984E886BF06B697
:1001D00007FEFDCF84EA86BF06B607FEFDCF81EDA0
:1001E00083B984E886BF06B607FEFDCF82EC43DF05
:1001F00084E886BF06B607FEFDCF03B110E0C80154
:100200008071907024E0969587952A95E1F7805D3E
:1002100049DFC8018F709070805D44DF8BEC2BDF6D
:1002200005FF03C080E690E002C083E690E071DF46
:1002300084E986BF06B604FCFDCF1F910F91089597
:100240000F931F9384EA86BF06B607FEFDCF80EDAD
:1002500083B984E886BF06B607FEFDCF81E083B987
:1002600084E886BF06B607FEFDCF84EA86BF06B6E1
:1002700007FEFDCF81ED83B984E886BF06B607FE91
:10028000FDCF85ECF8DE84E886BF06B607FEFDCF1D
:1002900003B110E0C80134E0969587953A95E1F7EF
:1002A000805D00DF0F701070802F805DFBDE84ECBE
:1002B000E2DE86E690E02DDF84E986BF06B604FC28
:1002C000FDCF1F910F9108950F931F9384EA86BF6E
:1002D00006B607FEFDCF80ED83B984E886BF06B67B
:1002E00007FEFDCF13B884E886BF06B607FEFDCF34
:1002F00084EA86BF06B607FEFDCF81ED83B984E8A8
:1003000086BF06B607FEFDCF88ECB5DE84E886BF63
:1003100006B607FEFDCF03B110E0C80144E0969594
:1003200087954A95E1F7805DBDDE0F701070802FD4
:10033000805DB8DE84E986BF06B604FCFDCF1F9160
:100340000F910895CF93DF9384EA86BF06B607FE28
:10035000FDCF80ED83B984E886BF06B607FEFDCFEA
:1003600083E083B984E886BF06B607FEFDCF84EA42
:1003700086BF06B607FEFDCF81ED83B984E886BF50
:1003800006B607FEFDCF8EE876DE84E886BF06B6A9
:1003900007FEFDCF83B1C82FD0E0CF70D07088E6C4
:1003A00090E0B7DE9E01205D822F7CDE84E986BF6F
:1003B00006B604FCFDCFC430D105F1F0C530D1053F
:1003C00048F4C230D10591F0C330D10590F42197A3
:1003D000F9F409C0C630D105A9F0C630D10578F0CE
:1003E0002797B1F412C082E790E014C08EE790E046
:1003F00011C08AE890E00EC087E990E00BC086EA61
:1004000090E008C084EB90E005C080EC90E002C072
:100410008EEC90E07EDEDF91CF9108950F931F93D5
:1004200084EA86BF06B607FEFDCF80ED83B984E877
:1004300086BF06B607FEFDCF84E083B984E886BF99
:1004400006B607FEFDCF84EA86BF06B607FEFDCFDF
:1004500081ED83B984E886BF06B607FEFDCF80E84C
:100460000ADE84E886BF06B607FEFDCF03B110E0C2
:10047000C80154E0969587955A95E1F7805D12DEA4
:100480000F701070802F805D0DDE84E986BF06B688
:1004900004FCFDCF1F910F9108950F931F93CF93ED
:1004A000DF9384EA86BF06B607FEFDCF80ED83B9F1
:1004B00084E886BF06B607FEFDCF85E083B984E8F1
:1004C00086BF06B607FEFDCF84EA86BF06B607FEE6
:1004D000FDCF81ED83B984E886BF06B607FEFDCF68
:1004E00083E8C9DD84E886BF06B607FEFDCF83B189
:1004F00090E08C010F701070EC0164E0D695C79508
:100500006A95E1F79E01205D822FCCDD802F805D12
:10051000C9DD84E986BF06B604FCFDCF8EECABDDF9
:10052000FE01E02BF12B3197EC30F10538F5ED5E53
:10053000FF4F09948BED90E020C088EE90E01DC045
:1005400086EF90E01AC081E091E017C08BE091E067
:1005500014C084E191E011C08EE191E00EC088E208
:1005600091E00BC084E391E008C083E491E005C012
:1005700080E591E002C08EE591E0CBDDDF91CF9187
:100580001F910F9108950F931F9384EA86BF06B6BB
:1005900007FEFDCF80ED83B984E886BF06B607FE6F
:1005A000FDCF86E083B984E886BF06B607FEFDCF9F
:1005B00084EA86BF06B607FEFDCF81ED83B984E8E5
:1005C00086BF06B607FEFDCF86E855DD84E886BF08
:1005D00006B607FEFDCF03B110E0C80174E09695A2
:1005E00087957A95E1F7805D5DDD0F701070802F43
:1005F000805D58DD84E986BF06B604FCFDCF1F91FF
:100600000F9108951F931FEF11BB63DD10B982E6B0
:10061000A6DDCBDD15DE58DE01DF3FDFB4DF92DE85
:06062000F8CFF894FFCFB3
:10062600504D00414D003A005765656B4461792D88
:100636003E00202020202053554E444159002020C2
:100646002020204D4F4E4441590020202020205488
:100656005545534441590020202020205745444EFB
:1006660045534441590020202020205448555253D8
:100676004441590020202020204652494441590037
:100686002020202020534154555244415900202017
:1006960020202053554E4441592000202020202060
:1006A6004A414E55415259002020202020464542BD
:1006B60052554152590020202020204D4152434896
:1006C6000020202020415052494C0020202020208C
:1006D6004D41590020202020204A554E450020201B
:1006E6002020204A554C59002020202020415547E3
:1006F60055535400202020202053455054454D4248
:1007060045520020202020204F43544F424552009E
:1007160020202020204E4F56454D42455200202095
:0C072600202020444543454D4245520030
:040000030000012ACE
:00000001FF
