:1000000012C024C023C022C021C020C01FC01EC0F7
:100010001DC01CC01BC01AC019C018C017C016C014
:1000200015C014C013C011241FBECFE5D4E0DEBF3D
:10003000CDBF10E0A0E6B0E0EEEDF2E002C005902A
:100040000D92AE36B107D9F7A6D047C1D9CF82BB42
:1000500084E085BB84ED90E30197F1F715BA08952C
:1000600082BB85E085BB84ED90E30197F1F781E0E9
:1000700085BB089588E382BB94E095BB44ED50E3D3
:10008000FA013197F1F715BA28EA31E6F90131970B
:10009000F1F781E082BB95BBFA013197F1F715BA10
:1000A000F9013197F1F78EE082BB95BBFA013197E8
:1000B000F1F715BAF9013197F1F780E882BB95BBEA
:1000C000CA010197F1F715BAC9010197F1F708952F
:1000D000FC0175E044ED50E361E028EA31E60AC036
:1000E00082BB75BBCA010197F1F765BB3196C901A7
:1000F0000197F1F78081882399F70895CF92DF92D5
:10010000EF92FF920F931F93CF93DF938C019C018B
:10011000E1E0F0E00FC0CF01880F991F43E0EE0F40
:10012000FF1F4A95E1F7E80FF91FC9016AE070E087
:10013000C0D09B012A30310570F718C0C801BF013B
:10014000B8D0462FC801BF01B4D08C01CF016AE0FE
:1001500070E0AFD0FB01C7010197F1F7405D42BBF2
:10016000C5BACE010197F1F7D5BA0AC098EAE92ECF
:1001700091E6F92E85E0C82EC4EDD0E3DD24D394BA
:100180003097E1F6DF91CF911F910F91FF90EF90A3
:10019000DF90CF9008955F926F927F928F929F929F
:1001A000AF92BF92CF92DF92EF92FF920F931F9385
:1001B000CF93DF938FEF84BB81BB5CDF80E882BB92
:1001C00084E085BB84ED90E30197F1F715BA80E6F2
:1001D00090E07EDFEE24FF2412EC512EB4E08B2E53
:1001E000A4EDCA2EA0E3DA2EF0E39F2EE5E0AE2EBA
:1001F000BB24B39476EC672E69EC762E52BA85BA9E
:10020000C6010197F1F715BA8AE0E816F10434F453
:1002100092BAA5BAC6010197F1F7B5BAC7016EDF68
:1002200000E010E062BA85BAC6010197F1F715BA8D
:100230000A30110534F492BAA5BAC6010197F1F754
:10024000B5BAC8015BDFC0E0D0E072BA85BAC601BA
:100250000197F1F715BACA30D10534F492BAA5BAAC
:10026000C6010197F1F7B5BACE0148DF2196CB332D
:10027000D10559F70F5F1F4F0B33110599F60894FD
:10028000E11CF11C8CE0E816F10409F0B7CF80E026
:1002900090E0DF91CF911F910F91FF90EF90DF9051
:1002A000CF90BF90AF909F908F907F906F905F9016
:1002B0000895AA1BBB1B51E107C0AA1FBB1FA617AD
:1002C000B70710F0A61BB70B881F991F5A95A9F7FF
:0E02D00080959095BC01CD010895F894FFCF64
:0E02DE00202048203A204D203A2053200000D6
:00000001FF
