:1000000012C019C018C017C016C015C014C013C044
:1000100012C011C010C00FC00EC00DC00CC00BC06C
:100020000AC009C008C011241FBECFE5D4E0DEBF5E
:10003000CDBF02D024C0E4CF17BA8FEF84BB81BB01
:1000400080E090E032E021E003C0B09BFECF01965B
:10005000B09BFBCF8130910519F425BB22BBF8CFB3
:100060008230910549F08330910519F435BB32BBDC
:10007000EFCF8430910561F715BA12BAE9CFF89441
:02008000FFCFB0
:00000001FF
