:1000000012C019C018C017C016C015C014C013C044
:1000100012C011C010C00FC00EC00DC00CC00BC06C
:100020000AC009C008C011241FBECFE5D4E0DEBF5E
:10003000CDBF43D08DC0E4CF82BB84E085BB84EDCF
:1000400090E30197F1F715BA089582BB85E085BB6F
:1000500084ED90E30197F1F781E085BB089588E393
:1000600082BB94E095BB44ED50E3FA013197F1F780
:1000700015BA20E533ECF9013197F1F781E082BB45
:1000800095BBFA013197F1F715BAF9013197F1F7FC
:100090008EE082BB95BBFA013197F1F715BAF901F1
:1000A0003197F1F780E882BB95BBCA010197F1F760
:1000B00015BAC9010197F1F70895CF92DF92EF9237
:1000C000FF920F931F93DF93CF9300D000D000D007
:1000D000CDB7DEB78FEF81BB84BBC1DFFE013196A8
:1000E00086E0DF011D928A95E9F788E4898385E43B
:1000F0008A838CE48B838C838FE48D8320E8C22EEB
:1001000094E0D92E24ED30E38F0169E170E0AE0177
:100110004A5F5F4F85E0E82EFF24F394C2BAD5BA58
:10012000C9010197F1F715BAF801808182BBE5BAE0
:10013000C9010197F1F7F5BA88E893E1DB0111975E
:10014000F1F70197D9F73196E417F50771F7E6CF84
:04015000F894FFCF51
:00000001FF
