:1000000012C024C023C022C021C020C01FC01EC0F7
:100010001DC01CC01BC01AC019C018C017C016C014
:1000200015C014C013C011241FBECFE5D4E0DEBF3D
:10003000CDBF10E0A0E6B0E0E8E9F1E002C0059035
:100040000D92A836B107D9F780D0A4C0D9CF82BB12
:10005000FFCFFC0148EA51E634E810C0CA0101971D
:10006000F1F723B936BF06B607FEFDCF81B1887F11
:10007000883219F083E082BBFFCF319620812223A2
:1000800069F7089584EA86BF06B607FEFDCF81B101
:10009000887F883019F081E082BBFFCF80E583B98B
:1000A00006B607FEFDCF81B1887F883119F082E066
:1000B00082BBFFCF80E690E0CCDF84E986BF06B646
:1000C00004FCFDCF089584EA86BF06B607FEFDCF87
:1000D00081B1887F883019F081E082BBFFCF80E654
:1000E00083B906B607FEFDCF81B1887F883119F04C
:1000F00082E082BBFFCF80E690E0ABDF84E986BF81
:1001000006B604FCFDCF089584EA86BF06B607FE56
:10011000FDCF81B1887F883019F081E082BBFFCFAD
:1001200080E783B906B607FEFDCF81B1887F8831AD
:1001300019F082E082BBFFCF80E690E08ADF84E99D
:1001400086BF06B604FCFDCF08958FEF81BB80E12A
:1001500097E229E130E0F9013197F1F70197D9F7FA
:100160008FEF80B98FDF80E197E229E130E0F9017C
:100170003197F1F70197D9F7A6DF80E197E229E1FE
:1001800030E0F9013197F1F70197D9F7BDDF80E051
:0801900090E00895F894FFCF00
:080198004D6179616E6B0000FE
:00000001FF
