:1000000012C024C023C022C021C020C01FC01EC0F7
:100010001DC01CC01BC01AC019C018C017C016C014
:1000200015C014C013C011241FBECFE5D4E0DEBF3D
:10003000CDBF10E0A0E6B0E0E8E8F1E002C0059036
:100040000D92A837B107D9F759D09CC0D9CF82BB40
:1000500084E085BB82EE94E00197F1F715BA08952C
:1000600082BB85E085BB82EE94E00197F1F781E0E9
:1000700085BB089588E382BB94E095BB42EE54E0D3
:10008000FA013197F1F715BA28EA31E6F90131970B
:10009000F1F781E082BB95BBFA013197F1F715BA10
:1000A000F9013197F1F78EE082BB95BBFA013197E8
:1000B000F1F715BAF9013197F1F780E882BB95BBEA
:1000C000CA010197F1F715BAC9010197F1F708952F
:1000D000FC0175E042EE54E061E024EC39E00AC036
:1000E00082BB75BBCA010197F1F765BB3196C901A7
:1000F0000197F1F78081882399F70895EF92FF9295
:100100000F931F93CF93DF9317BA8FEF84BB81BBFD
:10011000B1DFC0E0D0E090E8E92E84E0F82E02EEF6
:1001200014E003C0B099FECF2196B099FBCFC13047
:10013000D10549F4E2BAF5BAC8010197F1F715BA49
:1001400080E690E017C0C230D10549F4E2BAF5BAB2
:10015000C8010197F1F715BA87E690E00BC0C330EC
:10016000D10551F4E2BAF5BAC8010197F1F715BA11
:1001700080E790E0ADDFD9CFC430D105B4F2C0E064
:08018000D0E0D3CFF894FFCFCB
:100188006D6179616E6B0047756C616E6920200046
:08019800526F68616E20200027
:00000001FF
