:100000000C9462000C948A000C948A000C948A0070
:100010000C948A000C948A000C948A000C948A0038
:100020000C948A000C948A000C948A000C948A0028
:100030000C948A000C948A000C948A000C948A0018
:100040000C947D020C948A000C948A000C948A0013
:100050000C948A000C948A000C948A000C948A00F8
:100060000C948A000C948A00000000080002010031
:100070000003040700000000000000000102040863
:100080001020408001020408102001020408102002
:10009000040404040404040402020202020203032E
:1000A00003030303000000002300260029000000D2
:1000B0000000250028002B0000000000240027007D
:1000C0002A00F00011241FBECFEFD8E0DEBFCDBF65
:1000D00011E0A0E0B1E0EAE5F8E002C005900D9281
:1000E000AC31B107D9F721E0ACE1B1E001C01D921C
:1000F000AF33B207E1F710E0C4ECD0E004C02297C0
:10010000FE010E942704C23CD107C9F70E941604D1
:100110000C942B040C94000060E0809100010E947C
:10012000360320E042E060E18EE191E00E94B901F7
:1001300062E071E08EE191E00C940C0441E060E03B
:100140008EE191E00E949F01809100010E94A50331
:1001500020911C0130911D01892B69F02F5F3F4FC9
:1001600030931D0120931C01809100010E94A50382
:10017000892BD1F7E9CF2130310529F461E38EE1F4
:1001800091E00E940E0480911C0190911D01029744
:1001900029F462E38EE191E00E940E0480911C013B
:1001A00090911D01039729F463E38EE191E00E9491
:1001B0000E0480911C0190911D01049729F464E3C1
:1001C0008EE191E00E940E0480911C0190911D012E
:1001D000059729F465E38EE191E00C940E040895EF
:1001E000CF92EF920F938BE0C82E9AE0E92E09E0B0
:1001F00028E04DE06CE08EE191E00E9457020F9103
:10020000EF90CF900895CF93DF93EC0160E08E8163
:100210000E946F0381E090E00E94C70261E08E813E
:100220000E946F0381E090E00E94C70260E08E812F
:100230000E946F0384E690E0DF91CF910C94C70297
:10024000EF92FF920F931F93CF93DF938C01C0E047
:10025000D0E0E62EF12CB7010C2E02C07595679503
:100260000A94E2F76170F801EC0FFD1F87810E948C
:100270006F032196C430D10571F7C801DF91CF918A
:100280001F910F91FF90EF900C940301EF92FF925A
:100290000F931F93CF93DF938C01C0E0D0E0E62E45
:1002A000F12CB7010C2E02C0759567950A94E2F700
:1002B0006170F801EC0FFD1F87810E946F0321968A
:1002C000C830D10571F7C801DF91CF911F910F910F
:1002D000FF90EF900C9403011F93CF93DF93EC01F9
:1002E000162F642F8C810E946F038D818F3F19F030
:1002F00060E00E946F038F85612F84FF06C0CE01EE
:10030000DF91CF911F910C94460170E084E07595C8
:1003100067958A95E1F7CE010E942001612FCE01F9
:10032000DF91CF911F910C94200140E00C946C015F
:1003300061E00E94950180ED97E00C94C702443083
:1003400008F043E0FC012389421710F04FEF420F01
:10035000FC01E40FF11D2489260F2068622F0C9404
:100360009501FC016089262F2460208B6C600C9421
:1003700095010F931F93CF93DF93EC01423018F058
:100380008F8588608F874B8B1C8A80E48D8B6E8B6A
:1003900070E0605C7F4F6F8B222329F0413019F4AD
:1003A0008F8584608F8761E08C810E9436038D8108
:1003B0008F3F19F061E00E94360361E08E810E9458
:1003C000360300E010E08F8584FF03C088E090E0F2
:1003D00002C084E090E00817190754F4FE01E00F12
:1003E000F11F61E087810E9436030F5F1F4FEBCF43
:1003F00080E593EC0E94C70260E08C810E946F034D
:1004000060E08E810E946F038D818F3F19F060E064
:100410000E946F036F8564FD1DC063E0CE010E94E2
:10042000200184E991E10E94C70263E0CE010E94AD
:10043000200184E991E10E94C70263E0CE010E949D
:10044000200186E990E00E94C70262E0CE010E948E
:10045000200116C06062CE010E94950184E991E1FD
:100460000E94C7026F856062CE010E94950186E9F5
:1004700090E00E94C7026F856062CE010E949501E4
:100480006F856062CE010E94950184E0888BCE0169
:100490000E94B101CE010E94980182E0898B66E042
:1004A000CE01DF91CF911F910F910C949501CF92C6
:1004B000EF920F93FC011382128288E191E0918305
:1004C000808364838FEF8583468327830087E1865B
:1004D000C2861386148615861686178620E041E0AC
:1004E00060E1CF010F91EF90CF900C94B90141E002
:1004F0000E946C0181E090E008951F920F920FB668
:100500000F9211242F933F938F939F93AF93BF9399
:100510008091370190913801A0913901B0913A0151
:100520003091360123E0230F2D3720F40196A11DD1
:10053000B11D05C026E8230F0296A11DB11D209311
:1005400036018093370190933801A0933901B0931D
:100550003A0180913B0190913C01A0913D01B09105
:100560003E010196A11DB11D80933B0190933C017A
:10057000A0933D01B0933E01BF91AF919F918F91A8
:100580003F912F910F900FBE0F901F9018958230C2
:10059000910538F0880F991F880F991F05970197CB
:1005A000F1F70895789484B5826084BD84B5816044
:1005B00084BD85B5826085BD85B5816085BDEEE66B
:1005C000F0E0808181608083E1E8F0E0108280814A
:1005D00082608083808181608083E0E8F0E08081B8
:1005E00081608083E1EBF0E0808184608083E0EBD8
:1005F000F0E0808181608083EAE7F0E080818460C0
:10060000808380818260808380818160808380811B
:10061000806880831092C1000895833081F028F4AF
:10062000813099F08230A1F008958730A9F08830A8
:10063000B9F08430D1F4809180008F7D03C0809127
:1006400080008F7780938000089584B58F7702C0F3
:1006500084B58F7D84BD08958091B0008F7703C0ED
:100660008091B0008F7D8093B0000895CF93DF9389
:1006700090E0FC01E458FF4F2491FC01E057FF4F4C
:100680008491882349F190E0880F991FFC01E85478
:10069000FF4FA591B49182559F4FFC01C591D49114
:1006A0009FB7611108C0F8948C91209582238C9398
:1006B000888182230AC0623051F4F8948C91322FE1
:1006C000309583238C938881822B888304C0F8948F
:1006D0008C91822B8C939FBFDF91CF9108950F93C4
:1006E0001F93CF93DF931F92CDB7DEB7282F30E053
:1006F000F901E859FF4F8491F901E458FF4F149133
:10070000F901E057FF4F04910023C9F0882321F03D
:1007100069830E940D036981E02FF0E0EE0FFF1F57
:10072000E255FF4FA591B4919FB7F8948C91611158
:1007300003C01095812301C0812B8C939FBF0F9024
:10074000DF91CF911F910F910895CF93DF93282FC1
:1007500030E0F901E859FF4F8491F901E458FF4F67
:10076000D491F901E057FF4FC491CC2391F081114E
:100770000E940D03EC2FF0E0EE0FFF1FEC55FF4F32
:10078000A591B4912C912D2381E090E021F480E09B
:1007900002C080E090E0DF91CF910895CF92DF9288
:1007A000EF92FF920F931F93CF93DF937C016A0127
:1007B000EB0100E010E00C151D0571F06991D70107
:1007C000ED91FC910190F081E02DC7010995892BF5
:1007D00019F00F5F1F4FEFCFC801DF91CF911F912D
:1007E0000F91FF90EF90DF90CF9008956115710504
:1007F00081F0DB010D900020E9F7AD014150510976
:10080000461B570BDC01ED91FC910280F381E02D3A
:10081000099480E090E008950C94F603DC01ED91DA
:10082000FC910190F081E02D099408950E94D2027C
:100830000E9415040E948C00C0E0D0E00E949E003F
:100840002097E1F30E940000F9CFEE0FFF1F059003
:0A085000F491E02D0994F894FFCF15
:10085A000200427574746F6E20507265737365641A
:0C086A00203A2D00000000007702CE03B1
:00000001FF
