:1000000012C019C018C017C016C015C014C013C044
:1000100012C011C010C00FC00EC00DC00CC00BC06C
:100020000AC009C008C011241FBECFE5D4E0DEBF5E
:10003000CDBF43D056C0E4CF82BB84E085BB84ED06
:1000400090E30197F1F715BA089582BB85E085BB6F
:1000500084ED90E30197F1F781E085BB089588E393
:1000600082BB94E095BB44ED50E3FA013197F1F780
:1000700015BA28EA31E6F9013197F1F781E082BB40
:1000800095BBFA013197F1F715BAF9013197F1F7FC
:100090008EE082BB95BBFA013197F1F715BAF901F1
:1000A0003197F1F780E882BB95BBCA010197F1F760
:1000B00015BAC9010197F1F708958FEF84BB81BB91
:1000C00080E48DB9CCDF55E024ED30E341E0779B4F
:1000D000FECF8FB182BB55BBC9010197F1F745BB7C
:0600E000F6CFF894FFCFFB
:00000001FF
