:1002C400656E746572207061737300202020202095
:1002D400204F4B2020202020200020202020777237
:1002E4006F6E672070617373636F646520202020D4
:0102F4000009
:070341001203337F327E003E
:0B034800EF1FAC0670011E4C70F62287
:09032A007F287E231203487F01A5
:0E0333008FA0C2B0C2B1D2B2120344C2B22235
:0E0353008FA0D2B0C2B1D2B2120344C2B22205
:1002F5007F011203417F381203417F0E1203417FB4
:0B030500801203337F327E00020348A9
:100310001201CFFF6013120353740129F9E43AFA72
:0A0320007F287E2312034880E722A5
:04024F00AB07AA0649
:100253009000018A148B15C3E515940AE5149400E4
:10026300401C7C007D0AAF82AE831201E88E838F2F
:1002730082AE14AF151201FA8E148F1580D9C3E51F
:10028300829401E58394004037AF03AE02AD82ACA4
:10029300831201FA8E168F17AF03AE02AD82AC83C1
:1002A3001201FAAA04AB057C007D0AAF82AE831269
:1002B30001FA8E838F82E5172430FF12035380BE29
:0102C3002218
:100003001202F57BFF7A0279C412031012032A7FCE
:1000130080120333E4F50AF50B75900FE590640F36
:1000230060FAAF907E007590F0E59064F060FAADF1
:10003300907C00E590B4F0FBEE4CF508EF4DF5092C
:10004300E50B25E0240CF8A60808A609E50964E7F2
:100053004508700B7F80120333E4FFFE12024FE565
:100063000964EB4508700A7F801203337F31120362
:1000730053E50964ED4508700A7F801203337F322C
:10008300120353E50964EE4508700A7F80120333B7
:100093007F33120353E50964D74508700A7F801242
:1000A30003337F34120353E50964DB4508700A7F89
:1000B300801203337F35120353E50964DD4508706D
:1000C3000A7F801203337F36120353E50964DE454A
:1000D30008700A7F801203337F37120353E50964E4
:1000E300B74508700A7F801203337F38120353E544
:1000F3000964BB4508700C7F801203337F097E00BF
:1001030012024FE50964BD4508700C7F801203336A
:100113007F0A7E0012024FE50964BE4508700C7F1A
:10012300801203337F0B7E0012024FE5096477458B
:1001330008700C7F801203337F0C7E0012024FE5A0
:1001430009647B4508700C7F801203337F0D7E00AA
:1001530012024FE509647D4508700C7F801203335A
:100163007F0E7E0012024FE509647E4508700C7F06
:10017300801203337F0F7E0012024F050BE50B70D5
:1001830002050AC39404E50A6480948050030200C4
:100193001C12032AE50D64E7450C7024E50F64EB9C
:1001A300450E701CE51164ED45107014E51364EE03
:1001B3004512700C7BFF7A0279CF120310020017ED
:0C01C3007BFF7A0279DE120310020017A5
:0300000002036197
:0C036100787FE4F6D8FD758117020003D8
:1001CF00BB010689828A83E0225002E722BBFE022E
:0901DF00E32289828A83E4932261
:1001E800EF8DF0A4A8F0CF8CF0A428CE8DF0A42E2B
:0201F800FE22E5
:1001FA00BC000BBE0029EF8DF084FFADF022E4CCE9
:10020A00F875F008EF2FFFEE33FEEC33FCEE9DECB1
:10021A00984005FCEE9DFE0FD5F0E9E4CEFD22EDF7
:10022A00F8F5F0EE8420D21CFEADF075F008EF2F41
:10023A00FFED33FD4007985006D5F0F222C398FD32
:05024A000FD5F0EA22CF
:00000001FF
