:100000000C945D000C9485000C9485000C94850084
:100010000C9485000C9485000C9485000C9485004C
:100020000C9485000C9485000C9485000C9485003C
:100030000C9485000C9485000C9485000C9485002C
:100040000C94CD000C9485000C947A030C94AC03B2
:100050000C9485000C9485000C9485000C9485000C
:100060000C9485000C94850000000008000201003B
:100070000003040700000000000000000102040863
:100080001020408001020408102001020408102002
:10009000040404040404040402020202020203032E
:1000A0000303030300000000250028002B000000CC
:1000B0000000240027002A00DC0311241FBECFEF1C
:1000C000D8E0DEBFCDBF11E0A0E0B1E0E6E1F9E0AD
:1000D00002C005900D92A431B107D9F721E0A4E147
:1000E000B1E001C01D92AF3BB207E1F710E0CAEBEF
:1000F000D0E004C02297FE010E947C04C83BD107D7
:10010000C9F70E9448040C9489040C94000026E06E
:1001100040E855E260E070E082E291E00E9418035E
:1001200061E08DE00E94C60161E088E00C94C601A8
:10013000CF93DF9361E088E00E94FF0182E291E0CB
:100140000E94350218161906A4F4C0911401D0912A
:10015000150182E291E00E944E02CA5EDE4F888362
:10016000809114019091150101969093150180934F
:10017000140166E171E080E091E00E948004892B27
:1001800021F461E08DE00E94FF0164EF71E080E006
:1001900090E0DF91CF910C943A011F920F920FB62D
:1001A0000F9211242F933F938F939F93AF93BF93FD
:1001B00080911A0190911B01A0911C01B0911D0129
:1001C0003091190123E0230F2D3720F40196A11D52
:1001D000B11D05C026E8230F0296A11DB11D209375
:1001E000190180931A0190931B01A0931C01B093F5
:1001F0001D0180911E0190911F01A0912001B091DD
:1002000021010196A11DB11D80931E0190931F0134
:10021000A0932001B0932101BF91AF919F918F9145
:100220003F912F910F900FBE0F901F9018953FB7E1
:10023000F89480911E0190911F01A0912001B0912E
:10024000210126B5A89B05C02F3F19F00196A11DDD
:10025000B11D3FBF6627782F892F9A2F620F711D1E
:10026000811D911D42E0660F771F881F991F4A95D7
:10027000D1F70895CF92DF92EF92FF92CF93DF9361
:100280006B017C010E941701EB01C114D104E10450
:10029000F10489F00E9457040E9417016C1B7D0B2A
:1002A000683E734090F381E0C81AD108E108F10874
:1002B000C851DC4FEACFDF91CF91FF90EF90DF90F4
:1002C000CF900895789484B5826084BD84B58160B0
:1002D00084BD85B5826085BD85B5816085BDEEE64E
:1002E000F0E0808181608083E1E8F0E0108280812D
:1002F00082608083808181608083E0E8F0E080819B
:1003000081608083E1EBF0E0808184608083E0EBBA
:10031000F0E0808181608083EAE7F0E080818460A2
:1003200080838081826080838081816080838081FE
:10033000806880831092C1000895833081F028F492
:10034000813099F08230A1F008958730A9F088308B
:10035000B9F08430D1F4809180008F7D03C080910A
:1003600080008F7780938000089584B58F7702C0D6
:1003700084B58F7D84BD08958091B0008F7703C0D0
:100380008091B0008F7D8093B0000895CF93DF936C
:1003900090E0FC01E458FF4F2491FC01E057FF4F2F
:1003A0008491882349F190E0880F991FFC01E25560
:1003B000FF4FA591B4918C559F4FFC01C591D491ED
:1003C0009FB7611108C0F8948C91209582238C937B
:1003D000888182230AC0623051F4F8948C91322FC4
:1003E000309583238C938881822B888304C0F89472
:1003F0008C91822B8C939FBFDF91CF9108950F93A7
:100400001F93CF93DF931F92CDB7DEB7282F30E035
:10041000F901E859FF4F8491F901E458FF4F149115
:10042000F901E057FF4F04910023C9F0882321F020
:1004300069830E949D016981E02FF0E0EE0FFF1FAC
:10044000EC55FF4FA591B4919FB7F8948C91611131
:1004500003C01095812301C0812B8C939FBF0F9007
:10046000DF91CF911F910F910895FC01818D228D15
:1004700090E0805C9F4F821B91098F7399270895AC
:10048000FC01918D828D981731F0828DE80FF11D5E
:10049000858D90E008958FEF9FEF0895FC01918D79
:1004A000828D981761F0828DDF01A80FB11D5D96D6
:1004B0008C91928D9F5F9F73928F90E008958FEF44
:1004C0009FEF089582ED93E0892B49F080E090E062
:1004D000892B29F00E94D20381110C940000089509
:1004E000FC01848DDF01A80FB11DA35ABF4F2C91D1
:1004F000848D90E001968F739927848FA689B789A0
:100500002C93A089B1898C9180648C93938D848D78
:10051000981306C00288F389E02D80818F7D808347
:100520000895CF93DF93EC01888D8823C9F0EA8981
:10053000FB89808185FD05C0A889B9898C9186FDDC
:100540000FC00FB607FCF5CF808185FFF2CFA889D9
:10055000B9898C9185FFEDCFCE010E947002E7CF63
:10056000DF91CF910895CF92DF92FF920F931F9367
:10057000CF93DF931F92CDB7DEB76C0181E0D60138
:1005800058968C9358975B969C915B975C968C9150
:100590005C97981307C05096ED91FC91519780811C
:1005A00085FD2EC0F601038D10E00F5F1F4F0F7306
:1005B0001127F02EF601848DF81211C00FB607FC3A
:1005C000F9CFD6015096ED91FC915197808185FF2E
:1005D000F1CFC60169830E9470026981EBCF838DE0
:1005E000E80FF11DE35AFF4F6083D6015B960C9331
:1005F0005B975296ED91FC915397808180620CC07D
:10060000D6015696ED91FC91579760835096ED91E7
:10061000FC91519780818064808381E090E00F900D
:10062000DF91CF911F910F91FF90DF90CF900895B0
:10063000BF92CF92DF92EF92FF92CF93DF93EC01C4
:100640006A017B01B22EE889F98982E08083411535
:1006500081EE580761057105A1F060E079E08DE356
:1006600090E0A70196010E945804215031094109E8
:1006700051095695479537952795211580E13807FB
:1006800098F0E889F989108260E874E88EE190E0DA
:10069000A70196010E9458042150310941095109CE
:1006A0005695479537952795EC85FD853083EE85E2
:1006B000FF852083188EEC89FD89B082EA89FB8949
:1006C000808180618083EA89FB8980818860808362
:1006D000EA89FB89808180688083EA89FB8980813F
:1006E0008F7D8083DF91CF91FF90EF90DF90CF904F
:1006F000BF9008951F920F920FB60F9211242F935F
:100700008F939F93EF93FF93E0913201F091330128
:100710008081E0913801F091390182FD12C0908111
:1007200080913B018F5F8F7320913C01821751F0C4
:10073000E0913B01F0E0EE5DFE4F958F80933B0131
:1007400001C08081FF91EF919F918F912F910F9028
:100750000FBE0F901F9018951F920F920FB60F9219
:1007600011242F933F934F935F936F937F938F93B6
:100770009F93AF93BF93EF93FF9382E291E00E9428
:100780007002FF91EF91BF91AF919F918F917F91F7
:100790006F915F914F913F912F910F900FBE0F90EE
:1007A0001F90189582E291E00E94350221E0892B8A
:1007B00009F420E0822F089510922501109224015F
:1007C00088EE93E0A0E0B0E08093260190932701AB
:1007D000A0932801B093290187E091E09093230131
:1007E0008093220185EC90E090932F0180932E015D
:1007F00084EC90E0909331018093300180EC90E0A4
:10080000909333018093320181EC90E09093350115
:100810008093340182EC90E090933701809336010D
:1008200086EC90E0909339018093380110923B015F
:1008300010923C0110923D0110923E010895CF921A
:10084000DF92EF92FF920F931F93CF93DF937C0180
:100850006A01EB0100E010E00C151D0571F06991D3
:10086000D701ED91FC910190F081E02DC701099530
:10087000892B19F00F5F1F4FEFCFC801DF91CF9188
:100880001F910F91FF90EF90DF90CF900895089502
:100890000E9462010E9447040E948700C2E6D2E0E3
:1008A0000E9498002097E1F30E946202F9CF089518
:1008B000A1E21A2EAA1BBB1BFD010DC0AA1FBB1F64
:1008C000EE1FFF1FA217B307E407F50720F0A21BD6
:1008D000B30BE40BF50B661F771F881F991F1A9443
:1008E00069F760957095809590959B01AC01BD016D
:1008F000CF010895EE0FFF1F0590F491E02D0994AC
:10090000FB01DC018D91019080190110D9F3990B45
:060910000895F894FFCFEA
:100916004F4E0000000000B3021F0435024E024095
:040926000291020038
:00000001FF
