:1008000041540D0A0041542B434D47463D310D0ADA
:100810000041542B434D47533D222B393139373654
:1008200035343135303533220D0A004741532049E4
:100830004E20555220484F555345004741532053B1
:10084000454E534F5200202044455445435445449F
:100850002020004649524520494E20555220484FFD
:100860005553450054454D502053454E534F52006B
:0C09DC00758920758DFD759850D28E2213
:1008D7001209A27F507EC31209087F507EC31209F6
:1008E700087F507EC31209087F507EC31209087F14
:1008F700507EC31209087F507EC31209087F507EBD
:01090700C32C
:0B090800EF1FAC0670011E4C70F622C1
:1009B8008FA0C290C291D2927F327E00120908C2E3
:0209C800922279
:1009CA008FA0D290C291D2927F327E00120908C2C1
:0209DA00922267
:0E0943007BFF1209517FC01209B87A0879466D
:10095100120989FF60131209CA740129F9E43AFAEC
:0A0961007F1E7E0012090880E722C5
:100913007F381209B87FC87E001209087F011209C7
:10092300B87FC87E001209087F0E1209B87FC87EFF
:10093300001209087F801209B87FC87E00020908E7
:1009A2001209896010F599740129F9E43AFA30992B
:0609B200FDC29980EB225A
:10096B007BFF7A0879001208D77A0879051208D725
:0E097B007A0879111208D77F507EC30209084E
:100870001209DC120913C293C294C2B2C2B33093FC
:1008800028D2B212096B7BFF7A08792B1209A27564
:10089000991A3099FDC2991208DA1209047F801260
:1008A00009B87A08793B1209433094D2D2B31209BD
:1008B0006B7BFF7A0879531209A275991A3099FD5A
:1008C000C2991208DA1209047F801209B87A0879ED
:0708D0006412094302087ED7
:030000000209E80A
:0C09E800787FE4F6D8FD758107020870E6
:10098900BB010689828A83E0225002E722BBFE026C
:09099900E32289828A83E493229F
:00000001FF
