:1000000012C024C023C022C021C020C01FC01EC0F7
:100010001DC01CC01BC01AC019C018C017C016C014
:1000200015C014C013C011241FBECFE5D4E0DEBF3D
:10003000CDBF10E0A0E6B0E0E4E7F1E002C005903B
:100040000D92A037B107D9F759D092C0D9CF82BB52
:1000500084E085BB82EE94E00197F1F715BA08952C
:1000600082BB85E085BB82EE94E00197F1F781E0E9
:1000700085BB089588E382BB94E095BB42EE54E0D3
:10008000FA013197F1F715BA28EA31E6F90131970B
:10009000F1F781E082BB95BBFA013197F1F715BA10
:1000A000F9013197F1F78EE082BB95BBFA013197E8
:1000B000F1F715BAF9013197F1F780E882BB95BBEA
:1000C000CA010197F1F715BAC9010197F1F708952F
:1000D000FC0175E042EE54E061E024EC39E00AC036
:1000E00082BB75BBCA010197F1F765BB3196C901A7
:1000F0000197F1F78081882399F70895CF92DF92D5
:10010000EF92FF920F931F93CF93DF938FEF84BBF8
:1001100081BBB0DF2FE8C22E14E0C2EED4E00CE1C8
:1001200094ECE92E99E0F92E8FECD82EC2BA15BBCB
:10013000CE010197F1F715BA80E690E0C9DF02BB66
:1001400015BBCE010197F1F715BAC7010197F1F779
:10015000D2BA15BBCE010197F1F715BA87E690E048
:10016000B7DF02BB15BBCE010197F1F715BADECFA1
:04017000F894FFCF31
:100174006D6179616E6B006D616C686F74726100A2
:00000001FF
