:10089C0048434C20434443204E45572044454C4844
:0208AC00490001
:070866001208787FC87E0034
:0B086D00EF1FAC0670011E4C70F6225D
:100878008FB0C294D295C2907F327E0012086DC2AA
:020888009522B7
:10088A008FB0D294D295C2907F327E0012086DC288
:02089A009522A5
:10081F007F381208667F011208667F0E1208667F06
:0B082F00801208787FC87E0002086D70
:1008000012083AFF601812088A7F1C1208787F28A5
:0F0810007E2312086D740129F9E43AFA80E2227E
:1008530012081F7F8F1208787BFF7A08799C120891
:030863000080F022
:030000000208AE45
:0C08AE00787FE4F6D8FD7581070208533E
:10083A00BB010689828A83E0225002E722BBFE02BC
:09084A00E32289828A83E49322EF
:00000001FF
